启动
./bin/bitcoind -regtest -txindex=1

Client
./bin/bitcoin-cli -regtest getblockcount
0

./bin/bitcoin-wallet -regtest  -wallet=demo1 create

 ./bin/bitcoin-cli -regtest  -generate 100

./bin/bitcoin-cli -regtest  getblock 41cdfed7fb9b2f94ae42921e757a86a500b94c578359f35882918cf8e44a894f

./bin/bitcoin-cli -regtest  gettransaction a8008683e400deb598111e40a62b3efa539b152f6a81278202380d102f21aeae

./bin/bitcoin-cli -regtest  decoderawtransaction 020000000001010000000000000000000000000000000000000000000000000000000000000000ffffffff03016400ffffffff0200f2052a010000001600143dfa66bcd88e6784842eec550a2f1e88a1827d940000000000000000266a24aa21a9ede2f61c3f71d1defd3fa999dfa36953755c690689799962b48bebd836974e8cf90120000000000000000000000000000000000000000000000000000000000000000000000000


./bin/bitcoin-cli -regtest  decoderawtransaction 020000000001010000000000000000000000000000000000000000000000000000000000000000ffffffff03016400ffffffff0200f2052a010000001600143dfa66bcd88e6784842eec550a2f1e88a1827d940000000000000000266a24aa21a9ede2f61c3f71d1defd3fa999dfa36953755c690689799962b48bebd836974e8cf90120000000000000000000000000000000000000000000000000000000000000000000000000
{
  "txid": "a8008683e400deb598111e40a62b3efa539b152f6a81278202380d102f21aeae",
  "hash": "33b882eb1650d2ad682e620374df475014273bfafd500c52ed0f8536d450986c",
  "version": 2,
  "size": 168,
  "vsize": 141,
  "weight": 564,
  "locktime": 0,
  "vin": [
    {
      "coinbase": "016400",
      "txinwitness": [
        "0000000000000000000000000000000000000000000000000000000000000000"
      ],
      "sequence": 4294967295
    }
  ],
  "vout": [
    {
      "value": 50.00000000,
      "n": 0,
      "scriptPubKey": {
        "asm": "0 3dfa66bcd88e6784842eec550a2f1e88a1827d94",
        "desc": "addr(bcrt1q8haxd0xc3encfppwa32s5tc73zscylv5dfv0md)#tg6p5346",
        "hex": "00143dfa66bcd88e6784842eec550a2f1e88a1827d94",
        "address": "bcrt1q8haxd0xc3encfppwa32s5tc73zscylv5dfv0md",
        "type": "witness_v0_keyhash"
      }
    },
    {
      "value": 0.00000000,
      "n": 1,
      "scriptPubKey": {
        "asm": "OP_RETURN aa21a9ede2f61c3f71d1defd3fa999dfa36953755c690689799962b48bebd836974e8cf9",
        "desc": "raw(6a24aa21a9ede2f61c3f71d1defd3fa999dfa36953755c690689799962b48bebd836974e8cf9)#cav96mf3",
        "hex": "6a24aa21a9ede2f61c3f71d1defd3fa999dfa36953755c690689799962b48bebd836974e8cf9",
        "type": "nulldata"
      }
    }
  ]
}
